:020000020000FC
:100000000C94C10118951895189518951895189580
:100010001895189518951895189518951895189578
:100020001895189518951895189518951895189568
:100030001895189518951895189518951895189558
:100040001895189518951895189518951895189548
:100050001895189518951895189518951895189538
:100060001895189518951895189518951895189528
:100070001895189518951895189518951895189518
:10008000189518951895189518951895F8010585DF
:10009000015029F00A9589F00250F9F00895018184
:1000A0001281E0E0F1E0048315830481158130E0E2
:1000B000020F131FF8014083089501811281E0E0CF
:1000C000F1E0068317830681178132E0239F000D3C
:1000D000111DF80140835183089501811281E0E0F0
:1000E000F1E0008711870085118534E0239F000D22
:1000F000111DF80140835183628373830895AD011C
:10010000F8010585015029F00A95C9F0025079F1EE
:1001100044C0A0E0B1E001811281FD010483158398
:100120000481158130E0020F131FF8010081102FA8
:10013000110F110B0D931D931D931C932EC0A0E066
:10014000B1E001811281FD010683178306811781C9
:1001500032E0239F000D111DF80100811181212F34
:10016000220F220B0D931D932D932C9316C0A0E00C
:10017000B1E001811281FD010087118700851185A1
:1001800034E0239F000D111DF801008111812281AF
:1001900033810D931D932D933C93E0E0F1E00081BA
:1001A000118122813381DA0108950E942002D80151
:1001B0002A013B0100E0FD010383048301870287DC
:1001C0000387048780E090E013C0A201B301282FC9
:1001D0008D015CDFFD010185128523853485040DC9
:1001E000151D261D371D0187128723873487019629
:1001F000078110858017910744F3E8E00C942902E9
:100200000E942402D801C9010C9100FF02C001E044
:100210002AC0413031F0423021F0443011F000E08A
:1002200022C0FD0145870585102F110F110BAC0170
:100230000E94D3010E944A02FD0101831283012B17
:1002400081F085839683058116810783108700E0FE
:100250000383048301870287038704870C9101606D
:100260000C930C910170E4E00C942D020E9420028A
:10027000D8012A013B010C9100FD05C000E010E00F
:1002800020E030E04CC00C9101FD05C00C910260F3
:100290000C938D018ADFFD0123818D0130DFFD018B
:1002A0004185528563857485401B510B620B730B2E
:1002B0004187528763877487A201B30123818D012F
:1002C000E5DEFD0123818D011ADFFD0141855285A7
:1002D00063857485400F511F621F731F41875287CA
:1002E000638774870185128523853485478150850E
:1002F000652F660F660B762F0E94FE01FD0143817C
:1003000054814F5F5F4F438354834381548167819E
:100310007085461757071CF040E043834483E8E0AC
:100320000C942902EAE0F1E0008111810F5F1F4F78
:100330000083118300910A0110910B010895BA9373
:10034000AA93ACE0B1E042E02AE030E00FE011E037
:100350000E94000100930E0100910E010130E1F7AF
:10036000E1DFA801652F660F660B762F0FE011E025
:100370000E9436010D931C931197EECF00008895D3
:10038000FECF0EE50DBF01E00EBFCFE5D3E00E942A
:100390003602002311F00E94A8020E949F010E94D1
:1003A000BE010C94BE01149F102D059F100D049FDB
:1003B000002D110D0895002411241001E0E2EA95AA
:1003C00092F0001F111F221F331F001C111C221C42
:1003D000331C041615062606370688F3041A150A78
:1003E000260A370AECCF001F111F221F331FA0015E
:1003F000B10100951095209530950895FF2777233A
:1004000012F4F16015D0332312F4F09509D00E9454
:10041000DB01F69508F404D0F69508F409C00895B8
:1004200030952095109501951F4F2F4F3F4F089500
:1004300070956095509541955F4F6F4F7F4F089530
:100440007A926A925A924A92BA93AA939A938A9308
:1004500008957F806E805D804C80BB81AA819981E8
:100460008881F0E0EC0FFD1FEF01089501E0089591
:10047000F80141815281FA01E21BF30B349748F0F5
:10048000642FF8012183328340E0F90140836183C6
:10049000528308950E9424029801EDE1F1E0A081C9
:1004A000B1810A2F0B2B21F4AFE5B3E0A083B18318
:1004B0000FE514E00A1B1B0BC90103960817190767
:1004C000A8F001E00C938D01020F131F0D5F1F4F69
:1004D000FD01018312830181EDE1F1E000831183CD
:1004E000319521953040020F131F1FC0EFE5F3E057
:1004F00001C0F801EA17FB07B0F4018112814081C5
:100500004423B9F7C8018E1B9F0B039782179307EB
:1005100080F3CF01039601E00083280F391F8F017C
:10052000A7DF8C0102C000E010E0E4E00C942D0293
:1005300020E008D0E9F708953BBF27913BB702D0F0
:10054000D9F708952D9301501040202F212B0895A5
:1005500000EB402E05E0502E00E0602EF201362D1B
:100560006BBE07911691F201EE5FFF4F3F4F3BBF0D
:10057000A791B691F201362DEC5FFF4F3F4F3BBF85
:10058000479157916691242F252B262B21F0FA01B4
:10059000362FD2DF01C0CCDF07E0400E00E0501E56
:1005A000601EA201662D473B55406040B8F2089599
:0705B0001F00000100000024
:0400000300000000F9
:00000001FF
